:10000000A01A0020B90A02008DCB000091CB00009D
:10001000A70A02020002000004180FAC5065B001EC
:1000200000000000000000000000000000000000D0
:100030000000000008EA03000000000000000000CB
:100040000000000000000000FFFFFFFFFFFFFFFFB8
:10005000FFFFFFFFFFFFFFFFFFFFFFFFFFFFFFFFB0
:1000600000E00F000000000000001000FFFFFFFF95
:10007000FFFFFFFF1C000000000000000000000068
:10008000886D002088610020886100208861002040
:10009000A01A0020303404004480030040110020E6
:0C00A0001011002000001000886D0020EE
:10020000A01A0020B90A02008DCB000091CB00009B
:1002100099CB000095CB00009DCB0000B50A0200F1
:10022000B50A0200B50A0200B50A0200B50A0200CA
:10023000A1CB0000B50A0200B50A0200B50A02000F
:1002400095E500003DF601008DCE000014CC0000C5
:1002500001F10100A9F6010049F6010061F6010073
:1002600041F60100C9DC00009DDD0000B9FB000083
:100270009D66010014CC000014CC00004DA60000C7
:1002800014CC000014CC0000C1DD0000DD660000CD
:1002900014CC000014CC000014CC000014CC0000DE
:1002A00014CC000014CC000014CC000014CC0000CE
:1002B000ADF6010045F6010019E30000EDF601007E
:1002C00014CC000019B2010014CC000014CC0000C2
:1002D00014CC000014CC000014CC000014CC00009E
:1002E00014CC000014CC000014CC00005106000017
:1002F0007106000014CC000014CC000014CC0000E7
:0C03000014CC000014CC0000B50A020070
:10030C00F8B500BFF8BC08BC9E467047F8B500BFF6
:10031C00F8BC08BC9E46704710B5054C237833B921
:10032C00044B13B10448AFF300800123237010BDBC
:10033C004823002000000000802B040008B5034B6C
:10034C001BB103490348AFF3008008BD0000000057
:10035C004C230020802B0400154B002B08BF134BA3
:10036C009D46A3F5803A00218B460F461348144A4C
:10037C00121A35F0DAFA0F4B002B00D098470E4BBF
:10038C00002B00D098470020002104000D000D48E0
:10039C00002802D00C48AFF3008035F063FA20003F
:1003AC00290016F015FC35F049FA00BF00000800D2
:1003BC00A01A0020000000000000000048230020CC
:1003CC008861002000000000000000002DE9F047CB
:1003DC00DFF83C9006460C461F464D1E01F10708FF
:1003EC0015F8012F4946012006F024FF4545F7D1A9
:1003FC00054B06491E803246089723460120BDE86E
:10040C00F04706F017BF00BF9A4B0020548603003C
:10041C004486030070B5184C0023237001F0D6F904
:10042C00054601F0D3F9022813D02A4613490120BE
:10043C0006F000FF0F2114230322012013F03CF9D6
:10044C0013F0CAFA204641F28831BDE8704027F01B
:10045C003BBE01F0B7F9064601F0B8F9084905466C
:10046C00204627F031FE33462A4606490120BDE8D6
:10047C00704006F0DFBE00BFD04D0020BE860300EA
:10048C00A0860100FB86030070B500238CB004220B
:10049C000821032010F02AFD012304220921032046
:1004AC0010F024FD2C4B4FF480721A604FF4007244
:1004BC001A602A4B01AA03F11006154618685968F0
:1004CC00144603C40833B3422246F7D12846244DC0
:1004DC0010F036FC06F0BAF80FCD05AC0FC495E859
:1004EC0007004FF4165384E8070001211D480793B9
:1004FC000FF0BCFC01211C481C4C0FF0B7FC012276
:10050C0010460023072110F0F1FC012318460422A9
:10051C00062110F0EBFC05A9204610F0E9FF636FF3
:10052C00134843F003036367A36F23F4F85323F0DA
:10053C001F0343F4206343F00A03A367E36C43F007
:10054C000403E3640B4B4FF400625A6044F62061E1
:10055C0027F0BAFD0CB070BD9CA000468882030049
:10056C009882030000350A0000720400000C014060
:10057C00D04D002000E100E0104B2DE9F0411B882C
:10058C00DFF840800C46064617460D49024601200E
:10059C0006F050FE25462B1B9F4208DC30460023FC
:1005AC003A46214605F044FA0120BDE8F08115F8E1
:1005BC00012B4146012006F03DFEECE79A4B002052
:1005CC00988503004BD8030007B50B4600920449ED
:1005DC000246012006F02EFE03B05DF804FB00BFBE
:1005EC00998303002DE9F0410C46064617462EF080
:1005FC00EDF80E4B0E4918803246012006F01AFE1B
:10060C00DFF8308025462B1B9F4208DC3046022346
:10061C003A46214605F00CFA0120BDE8F08115F8A8
:10062C00012B4146012006F005FEECE79A4B002019
:10063C00DA8503004BD803000149012006F0FABD0E
:10064C0019860300064808B5036C836410F088FF14
:10065C0006F074F818B9BDE8084006F053B808BDA8
:10066C00000C0140014B1A6C9A647047000C01405D
:10067C0010B5174A137801331370164B00221A70F9
:10068C0001F0A4F8022816D1134B1B78062B0AD1C3
:10069C00124C208805F010FD228811490120BDE87C
:1006AC00104006F0C7BD0F49012006F0C3FDBDE8A0
:1006BC00104013F059B913F057F90B49012006F00B
:1006CC00B9FD0A4827F0F4FC094B01221A7010BD41
:1006DC0065230020104E0020662300209A4B00203A
:1006EC00B4820300D2820300278A0300184E002034
:1006FC006423002010B50B4C002323700A4B1B788D
:10070C0053B101F063F802280AD020464FF47A6105
:10071C00BDE8104027F0D8BCBDE8104001F056B839
:10072C0010BD00BF184E00206423002010B5074BED
:10073C00002201201A7011F0D3F9054A054903462D
:10074C00BDE81040012006F075BD00BF9C4B002099
:10075C009AA703009D860300912808B504D10020B8
:10076C000CF082FA002008BD9028FBD100200CF080
:10077C0069FAF7E721B9034B1870034827F098BCC6
:10078C00704700BF66230020104E002013B50B4BA2
:10079C00009004460A4A0B49012006F04BFD24B197
:1007AC00094B00221A7002B010BD084840F6B8314F
:1007BC0002B0BDE8104027F087BC00BFEAF103008F
:1007CC00488503004D850300642300209C4B0020CA
:1007DC0007B500230093074A074B0849012006F090
:1007EC0029FD074840F6B83103B05DF804EB27F05B
:1007FC006BBC00BF8E850300EAF103004D8503003E
:10080C009C4B002007B501200090054B054A06497A
:10081C0006F010FD054B00221A7003B05DF804FBC6
:10082C00EAF103008E8503004D850300642300204C
:10083C0008B5054A05490346012006F0FBFC044BAC
:10084C0000221A7008BD00BFEAF103009D86030068
:10085C006423002070B592B004462DF0B7FF2E4BE8
:10086C0018802DF0B3FF94F8EE3000932246034627
:10087C002A49012006F0DEFC94F8621094F834301A
:10088C0022890191E18E00910120254906F0D2FCCC
:10089C002DF09CFF09AE242208904FF480330021E8
:1008AC003046079335F041F803238DF8243007AB1D
:1008BC0093E8030004F0BCFC1A490D90012006F0EB
:1008CC00B9FC194835F02CF90F90184835F028F977
:1008DC000A90204604F078FD15490B90012006F093
:1008EC00A9FC144804F0B0FD0DAD0C901249012088
:1008FC0006F0A0FC0FCD6C460FC42B68236096E865
:10090C000F0004F01BFE044606F000F8204612B05F
:10091C00BDE8704034F0E4BF9A4B0020EF83030035
:10092C00618403009C840300E4840300EF840300CF
:10093C00FA840300544D00200985030008B50349CF
:10094C00012006F077FC012008BD00BF1E850300C6
:10095C000149012006F06EBCE4820300014901202C
:10096C0006F068BC6185030010B5074904460120F8
:10097C0006F060FC0023082221464FF6104005F0DB
:10098C0057F8012010BD00BF1E83030008B50349B2
:10099C00012006F04FFC012008BD00BF3C83030082
:1009AC00F0B51449144C87B00120154606F042FCF2
:1009BC0004F000FBB8B16B8862689A4211D10F4FFA
:1009CC0007F110060FCE6D460FC533682B6097E804
:1009DC000F0004F087FD054605F098FF284634F01B
:1009EC007FFF04F0E1FA94E8070004F0E9FA012033
:1009FC0007B0F0BD7E8303005C4B0020A44B0020AD
:100A0C0010B507490446012006F014FC0223082205
:100A1C0021464FF6104005F0B7F8012010BD00BF7D
:100A2C006083030008B5022004F0B2FF044B0022DF
:100A3C001A70022011F0D2FFBDE8084004F097BFF5
:100A4C00304E002008B5002004F08AFF044B002231
:100A5C001A7015F0CFF9BDE8084004F088BF00BF4C
:100A6C00284E002008B5012004F092FF044B002210
:100A7C001A70012011F0B2FFBDE8084004F077BFF6
:100A8C00384E002008B5012004F082FF044B0022F0
:100A9C001A70012013F0D0FFBDE8084004F067BFC6
:100AAC00204E002008B5012027F02EFC024827F02C
:100ABC00A1FB024B187008BD28870300404E002094
:100ACC0008B504F0FBF9012805D0034B1878BDE8F4
:100ADC00084027F073BB08BD404E002010B50C1E1B
:100AEC0003D127F0E5FA002010BD02DB27F0ECFA69
:100AFC00F9E70220F8E7B1F5000F02D20902FFF77F
:100B0C00EDBF0220704700002DE9F0419846154BCF
:100B1C00154F1B8800264FF00C0CF4B29C4202D3EC
:100B2C000220BDE8F0810CFB04F57C197D5D85424B
:100B3C0005D165888D4202D12579954201D00136C7
:100B4C00EBE701F07FFB0028EAD04146A068FFF7F5
:100B5C00C5FF0028E4D19DF8183063719DF81C3056
:100B6C00A371DEE7CC1A0020A81A002013B59DF85B
:100B7C001040CDE9003413460022FFF7C5FF02B048
:100B8C0010BD07B500230093FFF7F0FF03B05DF82D
:100B9C0004FB00000E4BF0B51F880E4E00254FF0E5
:100BAC000C0CEBB2BB4201D30220F0BD0CFB03F3E7
:100BBC00F418F35C834205D163888B4202D123790C
:100BCC00934201D00135ECE7A36800201870ECE7E4
:100BDC00CC1A0020A81A00200022FFF7DBBF00006F
:100BEC002DE9F04F1D4699B0FF23022D074688468C
:100BFC001446229E9DF88CA08DF81A3040F2D380BA
:100C0C0033785A072DD5042D40F2CD8096F804B0D8
:100C1C00694A002302EBC3015FFA83F90979FF29C2
:100C2C0008D001330A2BF5D1269B002B40F0BF8056
:100C3C004FF0FF0900230CAA0DF11B0120798DF850
:100C4C001B3002F0E7FF78B1BDF8583023809DF8D7
:100C5C001B0004F085FE8DF81900C8B119B0BDE871
:100C6C00F08F96F802B0D3E7207901F007FBFF284C
:100C7C00059000F09A80207904F08AFE8DF8190016
:100C8C000028EBD1059B4D4800EB031043882380D3
:100C9C00618823884FF6FF72002F08BF4246CDE9CA
:100CAC00001258465246002107F0F6FE18B1E388B0
:100CBC0043F02003E380269B09960DF1190107A848
:100CCC00CDE90734ADF82880ADF82A508DF82C709A
:100CDC008DF82DA002F0D6FF10B19DF81900BDE7DC
:100CEC00304607F0F7FDA01D07F0E2FD2246414615
:100CFC00384607F0F3FF80B2A8422ED39DF894300B
:100D0C000393BDF8903002930DF11A03CDE9006303
:100D1C002246EBB24146384600F0ECFE8DF8190045
:100D2C00269A9DF8193092B3002B42D19DF81A20C7
:100D3C00FF2A09D0B9F1090F06D81F4B03EBC901E3
:100D4C000A71269A43F839209DF8193013B91120ED
:100D5C0002F03AFF04F00BFEBFE7BAF1000F12D11C
:100D6C000DF11A03CDE9005322463346414638466D
:100D7C0011F020FB2B468DF81900114A1149022065
:100D8C0006F058FACCE774238DF81930C8E7BA2B63
:100D9C00DAD1E388DB06D7D5002301208DF8193092
:100DAC0004F092F8D0E7012058E7A32056E7B420CE
:100DBC0054E7BA2BEDD0CDE768230020044F002078
:100DCC00108F03001F8F03000023054A10B519462E
:100DDC00FF24D018047199500833502BF9D110BD51
:100DEC006823002010B586B00881089C0494002468
:100DFC00CDE902440124CDE9003413460A460146EC
:100E0C000320FFF7EDFE06B010BD13B500240094CF
:100E1C00FFF7E8FF02B010BD2DE9FF410F469046E9
:100E2C00054688B381B37AB300266946F0B21FF049
:100E3C0025FC044630B99DF80030032B06D0013652
:100E4C000A2EF2D1204604B0BDE8F0819DF80120B5
:100E5C002B799A42F3D1BDF802206B889A42EED1DD
:100E6C009DF806309DF8050000EB032080B29DF83C
:100E7C0004306B71288143463A462946FFF7C5FF7B
:100E8C000028DCD00446DDE70224DBE710B586B091
:100E9C00089C04940024CDE902440124CDE90034DB
:100EAC0013460A4601460620FFF79AFE06B010BD0F
:100EBC0013B500240094FFF7E9FF02B010BDF0B5A4
:100ECC0002288BB005460E4614461F460AD106A9C9
:100EDC00F0B21FF0D3FB98B99DF8193023719DF82F
:100EEC001C306371119B04930022109B0192CDE97D
:100EFC000222009322463B4631462846FFF770FEFD
:100F0C000BB0F0BD13B500240194049C0094FFF7C2
:100F1C00D6FF02B010BDF0B587B0074614460E469A
:100F2C001622002168461D4604F02CFCADF80C700E
:100F3C00ADF80A40F6B1082231460DF1010004F07B
:100F4C00C5FBBDF8143043F00203ADF81430002398
:100F5C008DF80030BDF83430ADF80E300F9ABDF876
:100F6C003030BDF83810ADF81030684612F08AF801
:100F7C0007B0F0BD1DB1ADF812500C23E8E74FF6E9
:100F8C00FB739C428CBF082400248DF80040E1E7E1
:100F9C0007B5094A0346108831B9084A084903B015
:100FAC005DF804EB06F062B90091064A064906F0BA
:100FBC005DF903B05DF804FB6C280020E2CE030061
:100FCC00CA8C030086CF0300D18C03007FB5054685
:100FDC000E4628F06DFC2A46044603460C490420B4
:100FEC0006F028F98CB986B101238DF80E30032355
:100FFC000093224603AB36214FF6FC708DF80C4063
:10100C008DF80D5009F0CEFA0446204604B070BDA0
:10101C00B38C0300FF2810B50C4604D104200449FE
:10102C0006F008F9FE202146BDE81040FFF7CEBFC0
:10103C008C8E0300F8B51F460B8806460D461446E9
:10104C00002B69D14A88110448BF637833490820C2
:10105C0006F0F0F86B8848F20402934238D00FD8AF
:10106C0048F20102934244D048F20202934248D023
:10107C00132B0ED1A2786378294903EB022229E0C5
:10108C0048F20602934229D038D348F22002934208
:10109C002CD03B4622462946304600F0C2FE70B9A1
:1010AC003B4622462946304614F07EFE6A8848F2BA
:1010BC0021039A4203D16178304602F0B2FD6B886D
:1010CC00B3F5004F02D9082002F0EBFD012024E01B
:1010DC00144A1549082006F0ADF8DAE7134A12490C
:1010EC00082006F0C3F822791149F3E76278114918
:1010FC00F0E71149082006F09DF8CAE722790F495C
:10110C00E8E70F4A0849082006F0B0F8A27863789F
:10111C000C4903EB0222DDE70020F8BDDE8C030056
:10112C00548D0300038D03000A8D03001B8D0300F7
:10113C00218D03002F8D03006B8D0300858D030023
:10114C00A78D0300AC8D03002DE9F04188B0064655
:10115C000C4690461F462DF039FB0EAB054600930E
:10116C0002460FAB2146304611F0C6F938B1264A7B
:10117C002649022006F05EF808B0BDE8F0816188CF
:10118C00BDF83820238800910220214906F052F83E
:10119C000F9B0493BDF83830ADF814308DF808600F
:1011AC000394ADF816508DF818808DF8197000F076
:1011BC000FFB8DF81A0000F00DFB8DF81B0022F0D0
:1011CC007EF88DF81C0002A802F05AFD0028D3D13D
:1011DC00BDF838300F9A2146284606F021FF00282A
:1011EC00CAD1BDF838300F9A21462846FFF722FFA6
:1011FC000028C1D1CDE90050BDF838300F9A3146E6
:10120C00204607F06FFCB7E7108F0300D68B030066
:10121C00EC8B03002DE9F04F85B0804689461446CF
:10122C00BDF838600F9D9DF840B01F46002B2CD0A8
:10123C00474A4849042006F019F82388002B78D037
:10124C0040F20912934276D0434A4449B3F5827F67
:10125C0018BF0A466188009101964149042006F0A6
:10126C0005F823886BB1022E0BD92B783D493E4AE9
:10127C0013F0010F18BF0A46AB783C49042005F067
:10128C00F5FF3B49042005F0D5FF3A4A00231146EF
:10129C0002EBC300007958454FD152F833A000231C
:1012AC0001EBC302107958454DD1FF20107100227B
:1012BC0041F8332047B9238833B9B4F90230002BF5
:1012CC0002DB082002F080FC012002F0EAFC9DB158
:1012DC002878C30710D510F0040004D03246012141
:1012EC00284604F0FEFACDE90170009533462246FB
:1012FC004946404601F0A4F9BAF1000F06D0CDE9F9
:10130C0000573346224649464046D0473B46224684
:10131C0049464046CDE9006509F04EFB334622466E
:10132C0049464046CDE90E5705B0BDE8F04FFFF7F2
:10133C0037BB114A8EE7114A8CE701330A2BA7D130
:10134C004FF0000AABE701330A2BA9D1B2E700BF7B
:10135C00388C0300408C0300268C03008D8C03001A
:10136C004A8C0300298C0300318C0300798C030018
:10137C000BB00300682300201F8C0300238C030098
:10138C002DE9F0479DF824709DF828A0BDF8208029
:10139C00994604460D4616460849094A022005F0AE
:1013AC0049FFCDE9099ACDF820803B4632462946C3
:1013BC002046BDE8F047FFF72DBF00BFCF8B0300E1
:1013CC00108F0300962813B504463BD034D89128CF
:1013DC0043D0942836D0902848D100F0F3F9274B0D
:1013EC000090274A2749042005F024FFBC2C2FD15C
:1013FC002549042005F01EFF02F04CFC02F04BFCCA
:10140C0002F049FC204612F0B5FC204616F066FCB2
:10141C00204609F055FB204612F000FA204613F046
:10142C0015F92046FFF798F930B31849042002B09B
:10143C00BDE8104005F0FEBEAF2807D8AB280AD295
:10144C00982813D1124B0E4A124909E0BC28C3E765
:10145C002FF0E6FCD4E79128F4D1084B084A0E494A
:10146C00042005F0E7FE07F064F9CBE722460B49B0
:10147C00022005F0DFFEC5E702B010BDBD8D0300F4
:10148C00C68D0300CD8D0300DA8D03002A8E030078
:10149C00018E0300098E0300F88D0300128E0300E9
:1014AC0013B50F4C002004F05BFA23686BB101A854
:1014BC0000F086FB48B923681A789DF804309A42EC
:1014CC0003D0012A07D1022B05D1032301A8ADF8C3
:1014DC00043029F06FF904F04AFA02B010BD00BFD5
:1014EC005C24002010B5044604F03FFA204612F0AC
:1014FC00CDFCBDE8104004F03ABA00000B4B1B6861
:10150C0013B504467BB1187801280CD122890092BE
:10151C00E37A074A074905F08DFE204602B0BDE884
:10152C00104028F0B5BF702002B010BD5C24002024
:10153C005A8E03005F8E03000D4B1B6837B50546B2
:10154C009BB11C780289C37A0A490092012C0A4A81
:10155C004FF0010008BF022405F06CFE294620461E
:10156C0003B0BDE8304029F0C1B8702003B030BDE5
:10157C005C2400205F8E03004885030010B50446F0
:10158C0000F018F9631E04F10F02002113F8010F8B
:10159C00FF2808BF19709342F8D10023237410BDA3
:1015AC007FB504AB03E9030000239DF80D509DF8B3
:1015BC000E6016491C46D8B201EBC0025268EAB95B
:1015CC009DF80C1000919DF80B309DF80A201049E5
:1015DC00042005F04BFE25B12A460E49042005F0E7
:1015EC0045FE0D4ABDF808300C49002C18BF2246A8
:1015FC00042004B0BDE8704005F01CBE11F83000AA
:10160C000133B04208BF1446D5E700BFC88E0300B3
:10161C00908C0300A18C03008C8C0300A58C030020
:10162C00FFF7A8B810B50EF0B8FF012300224FF455
:10163C00E131202014F0A8FD0BF09AF804460BF0D1
:10164C008BFD224603461249012005F0F3FD0BF0F9
:10165C0095F804460BF08EFD224603460D490120F9
:10166C0005F0E8FD0BF084F8012303FA00F040F2DA
:10167C00A17318420BD0084C20780BF085F8207819
:10168C000BF03EF92078BDE810400BF03FBA10BDCE
:10169C00D58F0300EB8F03005D1B002037B50022B4
:1016AC00114601A802F0B8FA00286CD126F0D2FA43
:1016BC000346002862D03549354A012005F0BAFDB1
:1016CC00AD2134480AF03AFE04F040F9FFF77CFBF8
:1016DC0000F0E2FB00F08CFB0221084606F01AF940
:1016EC00FFF7DEFE02F052FE2B4B2C4C2C4D41F240
:1016FC0002021A802B4AFF2313802B4A4FF400401E
:10170C00138022F0FFFB012128480EF0AFFB0023D1
:10171C000422092102200FF0E9FB002304220621F8
:10172C0001200FF0E3FB04F0F3FF04F0E5FF0BF0F6
:10173C00E1FB04F0DBFF28B105F06AF804F0E8FFE8
:10174C0004F0DAFF0BF0D6FB26F02EFB03F0B6FB11
:10175C00012801D000F055FB14F06CFDFFF7B0F937
:10176C002021002003F044F828B1224629464FF6E8
:10177C00FF7005F07BFD04F0FCF8D8E70C49022063
:10178C0005F058FDA0E7019803B030BD978F03001A
:10179C00388C0300A88F03006A210020C38F03003C
:1017AC00D18F03006C2100206E21002000350A002F
:1017BC00B98F0300024910237F2209880BF0E0BA8D
:1017CC007CE5030026F00ABC26F014BC26F084B994
:1017DC002DF026BB1FB568462DF006F8C8B902A936
:1017EC002FF02AF8082269460DEB020003F0D1FF16
:1017FC0010B9002004B010BD02A901202FF01CF874
:10180C00082269460DEB020003F0C3FF90B90120DA
:10181C00F0E72CF0DBFF4FF6FF739842044609D03B
:10182C0000202FF021F88442E3D001202FF01CF887
:10183C008442ECD0FF20DDE738B5054604F0A8F86B
:10184C00044698B94FF4A0532A460949082005F0DC
:10185C00F1FC4FF4A051284608F016FE054902464B
:10186C000446082005F0E6FC04F081F8204638BD5B
:10187C000B900300179003007FB5054604F075F834
:10188C0026F0ACFB40B16B88B3F5006F04D1681D3A
:10189C0002F0C5F9044616E0284602F000FAD8B961
:1018AC000446E6B2694630461EF0E8FE80B99DF863
:1018BC0000306BB9294630461EF062FF0028E9D093
:1018CC0075280BD08C2404F052F8204604B070BD5F
:1018DC0001340A2CE5D1F5E78D24F4E78B24F2E7EB
:1018EC0038B5054604F041F8284602F0D6F998B907
:1018FC0028461EF013FF68B175280CBF8B24882472
:10190C0023462A460549082005F094FC04F02FF8DC
:10191C00204638BD0446F3E78D24F7E721900300F9
:10192C0037B502A9FF2301F8013D044602F06EF918
:10193C0018B19DF8070003B030BD094B03EB04133D
:10194C001D7B21F0BEFC854201D0FF20F3E7204631
:10195C0000F0EAFA0028F8D0204600F051FDEAE742
:10196C00044F00202DE9F04107460D4602F050F9D6
:10197C000646F0B9384600F081FCFF2819D00E4C11
:10198C0004EB001494F80C8021F09BFC804510D1E2
:10199C0063882B80A3886B80A3792B710121384637
:1019AC0000F034FD31466871384600F02FFD0126F9
:1019BC00A8713046BDE8F081044F0020F8B504460C
:1019CC000E46154600F05AFCFF2802D14FF6FF7068
:1019DC00F8BD0B4B03EB0010077B21F072FC874228
:1019EC00F4D146B901222946204600F035FD0028E5
:1019FC00ECD00088ECE7012EE8D10022F3E700BF21
:101A0C00044F002010B5044603F0AFFF2046FFF74B
:101A1C00D9FCBDE8104003F0AABF000037B50C4B51
:101A2C001B681C5C94420D460AD900922346094A55
:101A3C000949042005F0FEFB0024204603B030BD0C
:101A4C000022014600922346284626F08FFEF4E73A
:101A5C00DC1B0020388C03006B8F0300F0B599B0B1
:101A6C00144603AD0F46064603F07FFF2046522274
:101A7C002946FFF7D3FF84B28CB10DF10A002CF08C
:101A8C0095FE0DF10B002CF099FE9DF90B309DF895
:101A9C000A20CDE9004539463046FFF755FB03F0E7
:101AAC0066FF19B0F0BD2DE9F0439BB014469DF8CC
:101ABC008850894680461F4603F057FF294620462A
:101ACC0010F0D6FC80B905AE522231463846FFF7ED
:101ADC00A5FF48B180B20090CDE901672B462246A4
:101AEC0049464046FFF796FB03F041FF1BB0BDE8AB
:101AFC00F08300002DE9F7431C4607460E460120F3
:101B0C002649BDF830809DF8349015461A4605F0EC
:101B1C0091FB21460A9826F051FEFF2804463AD044
:101B2C000B9B1870062F34D8DFE807F0040404125E
:101B3C001929220003462A46314638462DF0ACF8C6
:101B4C000546204626F0DEFC284603B0BDE8F083AF
:101B5C000C220346114628462DF070F8F0E7EA7A7D
:101B6C000346CDE90089114628462DF029F8E7E710
:101B7C0003460C22294630462CF0C8FFE0E70190C2
:101B8C00EB7A00934A462B46314640462CF0E2FF56
:101B9C00D6E70225D5E71825D6E700BF838F0300CB
:101BAC000822014903F092BD6D60002010B5044677
:101BBC00084625F0A5FF2046BDE8104027F0F6BFEB
:101BCC0027F0F4BF05207047062070470A207047A5
:101BDC0009F088B909F0F8B809F0F0B8014B187899
:101BEC00704700BFF41B00204B207047024B186855
:101BFC005968FFF7D5BC00BF5227040013B5044643
:101C0C0003F0B3FE0DF106002CF0D0FD0DF1070032
:101C1C002CF0D4FD9DF907209DF80610204610F0FD
:101C2C007FF830B99DF907209DF80610204614F076
:101C3C0003FA03F09CFE02B010BD38B504460D4605
:101C4C0003F093FE2946204610F050FA18B92946A5
:101C5C00204614F001FABDE8384003F088BE38B5D0
:101C6C0004460D4603F081FE2946204610F0C2F8CA
:101C7C0018B92946204614F0CDF9BDE8384003F0D8
:101C8C0076BE38B504460D4603F06FFE2946204655
:101C9C0010F0E6F818B92946204612F04BF9BDE8C9
:101CAC00384003F064BE704700F0D0B810B5044C57
:101CBC0022780AB118F0ACF90123237010BD00BFD3
:101CCC005E1B002000207047014B187000207047ED
:101CDC00B82300202DE9F341224B0193164604460C
:101CEC0040B13AB1002301AA9D5C8D4233D001333F
:101CFC00042BF9D1022002B0BDE8F081E35C93FA29
:101D0C00A3F30146180E03F0CBF8434603F1010888
:101D1C00DBB2BB42F2DBC2B292FAA2F2C0F30F23E7
:101D2C0093FAA3F3100E1B0E03EB00236219DB4393
:101D3C009BB212F8020CD9B2884211D112F8012CC4
:101D4C00B2EB132F0CD132462146284602B0BDE827
:101D5C00F04120F0F1BD00234FF6FF708F1ED5E748
:101D6C00BD20C8E7080A0E122DE9F0411D4686B0C9
:101D7C001E4B1646074603A888461C781FF00CF825
:101D8C0016F0FD0F2FD030B9BDF80C30990702D5E5
:101D9C00032E08BF032433462A4641463846009496
:101DAC00FEF714FB33462A4641463846009414F09D
:101DBC0053F8FFF707FD854203D02946384608F053
:101DCC00BFFF022C0BD0FFF7FDFCA84207D0B21EC0
:101DDC005342534129460022384608F0FBFF204667
:101DEC0006B0BDE8F0810324D5E700BFB82300207E
:101DFC0008B5FEF749FB06F061FCBDE8084011F0A0
:101E0C000BBD08B501F00AFF06F092FC10F08EFD38
:101E1C0010F086FEBDE8084012F010BE704701F0CD
:101E2C002DBFF8B504460D4616461F4601F02CFF93
:101E3C0040B93B4632462946204609F03FFF00F0A8
:101E4C000100F8BD0120FAE70020704738B50446C0
:101E5C000D4601F02BFF2946204611F0F9FC2946CE
:101E6C002046BDE8384014F0E5BEFEF785BBFEF712
:101E7C00B9BB000010B5074A0123332B194601D119
:101E8C00002006E00233D41814F8034C8442F4D139
:101E9C00505C10BD37900300F0B587B040F20123C1
:101EAC00194A1A49ADF80030194B1A4D0220CDE9E8
:101EBC0004230870002301221749ADF80430ADF853
:101ECC000820ADF80C300DF1100E0DF1140C01AF13
:101EDC0002AE03AC10461DF803200A703EF8132026
:101EEC004A803CF813208A80DA5D8A71F25C487370
:101EFC0005EBC2028A601A5D0A7310310BB107B090
:101F0C00F0BD0123E7E700BF04010401B923002061
:101F1C000401100880940300044F0020014B187832
:101F2C00704700BFB9230020034B03EB0010407B2C
:101F3C0000F00100704700BF044F00204138032817
:101F4C008CBF002001207047413801288CBF002035
:101F5C0001207047433801288CBF002001207047B6
:101F6C0000207047064BC01A064B80104343103BB1
:101F7C009BB2022B41F2A20028BF0020704700BF89
:101F8C00F4910300CDCCCCCC0388B3F57C4F01D3BA
:101F9C00FFF7E8BF0846FFF7E3BF10B54A8804888F
:101FAC00A2420DD1037B0C79234009D0B2F57C4FB2
:101FBC0008D3FFF7D7FF0B891B1A5842584110BDA5
:101FCC000020FCE70120FAE738B50D88D488A5423B
:101FDC000AD10388B3F57C4F08D2FFF7D5FF1389DC
:101FEC001B1A5842584138BD0020FCE70120FAE783
:101FFC002DE9F04F8BB04FF0000A01939DF8503053
:10200C000593714BDFF8D0911B78049180461546EF
:10201C0008935746089A5FFA8AF39A4201D88620A9
:10202C0063E099F800300293D9F808300393029AD0
:10203C0098F80030934240F0BF8099F80D30D807E3
:10204C0009D5039B1B7907934FF0000B079A5FFA96
:10205C008BF39A4204D80AF1010A09F11009D9E765
:10206C00039B1E68142303FB0B6641463046FFF7A7
:10207C0094FF002800F09C80338906930023069976
:10208C009AB2914202D80BF1010BDFE77468099305
:10209C000C2202FB0344214642463046FFF794FFD4
:1020AC002279099B00287BD0049B03B11C6091060C
:1020BC001ED4464809E01A79920642BFD8783F18D8
:1020CC00BFB20C339C42F6D84148059B074493B1F0
:1020DC0021463046FFF758FF2388B8F80210024615
:1020EC00029801F076FD60BB7E200BB0BDE8F08F4E
:1020FC000027384BE6E7002D35D021463046FFF758
:10210C0043FF2388B8F802100246029801F05FFDE5
:10211C000028E9D0DFF8C49028462379DB0615D5D2
:10212C0021463046FFF730FF98F80060B8F80210EF
:10213C001495034622463046CC460BB0BDE8F04F12
:10214C0060473846DFF898902F46E6E7019AA37867
:10215C005AB9E278A3F14101012908D8013AD2B267
:10216C00394606F0E7FD0020BFE7019AF2E7433B52
:10217C00012B05D8023A92B2394606F0F5FDF2E78A
:10218C00059B2BB9019B1BB1E37801998B4218D8A5
:10219C00394617B903F0F6FAE5E703F097FAE2E7E8
:1021AC0012F0300F02BFE0783F18BFB2013366E780
:1021BC0070890744BFB266E7039BD8880744BFB257
:1021CC0049E7892091E700BFB9230020244F002064
:1021DC00444E0020B0900300044F00200D3C000042
:1021EC00113C00002DE9F84390F8048006461F4688
:1021FC0000254FF01409EBB2984501D8002416E0E5
:10220C0009FB05F033681C181B5A8B4217D12AB1F5
:10221C00802A0FD194F90C00002810DAB3F57C4F0A
:10222C0005D32046FFF79EFEB84200D03FB92046AA
:10223C00BDE8F883402A02D1207B4006EED401355C
:10224C00D9E7000030B50B4B0B4A1C780023D9B2F0
:10225C00A14201D3002030BD1946013302EB031516
:10226C0015F8105C8542F2D102EB0112507B00F0A4
:10227C000100F0E7B9230020044F002070B50A4B91
:10228C000A491D780023DAB2AA4202D3FF22104673
:10229C0070BD1C016618645C844202D1747BE40737
:1022AC00F5D40133EFE700BFB9230020044F002021
:1022BC002DE9F0410D4616461F46FFF7DFFFFF28BC
:1022CC000AD0074C04EB00103B4632462946806886
:1022DC00BDE8F041FFF786BF0020BDE8F08100BFEC
:1022EC00044F002008B513460022FFF7E1FF003031
:1022FC0018BF012008BD08B513464022FFF7D8FFD0
:10230C00003018BF012008BD08B513468022FFF726
:10231C00CFFF003018BF012008BD08B540220023B4
:10232C00FFF7C6FF003018BF012008BD08B580229A
:10233C000023FFF7BDFF003018BF012008BD0000CF
:10234C0030B5094B094C19780023DAB28A4201D313
:10235C00FF2206E0013304EB031515F8105C8542EF
:10236C00F3D1104630BD00BFB9230020044F00202C
:10237C002DE9F0410D4616461F46FFF7E1FF054CCF
:10238C0004EB00103B46324629468068BDE8F0411C
:10239C00FFF728BF044F00202DE9F84F0746884669
:1023AC0091469A46FFF784FFE0B10F4BDFF83CB043
:1023BC001E7800252C46EBB2B34202D32046BDE872
:1023CC00F88F01350BEB051313F8100C8742F5D081
:1023DC0053464A464146FFF7CBFF002818BF01344D
:1023EC00E4B2E8E7FF24E9E7B9230020044F00201A
:1023FC0013464022FFF7D0BF0022FFF7F9BF0000C1
:10240C00014B0001185C7047044F002070B50D465D
:10241C00FFF734FFFF2818D00E4B03EB0010826837
:10242C009AB10023117918461426DCB2A14200D8C7
:10243C0070BD146806FB0344247B45B114F0400FB7
:10244C001CBF0130C0B20133EFE70020F0E714F0FD
:10245C00800FF5E7044F00202DE9F0410F46904620
:10246C00FFF70CFFFF280BD0104B03EB00100023E1
:10247C00856829791C464FF0140CDAB2914202D8C7
:10248C000020BDE8F08128680CFB0300067BB8F146
:10249C00000F08D016F0400F03D0BC42F1D001342D
:1024AC00E4B20133E9E716F0800FF5E7044F0020A2
:1024BC002DE9F04F89B0074620F001FF3D4B1B780A
:1024CC000293824600244FF00C0B029B9C422ED2AE
:1024DC00FF2F05D03846FFF7D1FEFF28044626D043
:1024EC00FF2F354E4FEA041360D1F218127B524580
:1024FC005CD00134E4B2E8E71B68142202FB05351A
:10250C002B89B3F5967F01D90AF0F4FC4FF0000942
:10251C002A891FFA89F39A420CD808F10108B3688A
:10252C001A795FFA88F5AA42E6D8FF2FE1D009B0F4
:10253C00BDE8F08F1FFA89F168680BFB01F14218B6
:10254C00137913F0100F29D196F800C08DF814C030
:10255C00B5F800C0ADF816C013F0400F0CBF4FF02B
:10256C00400C4FF0800C8DF818C0415AADF81A1081
:10257C00284611460393FFF707FD039BADF81C009B
:10258C005B07D1780DD50229926800D91268012316
:10259C0000930023194605A8FFF72AFD09F101094C
:1025AC00B6E7022994BF08329268F0E74FF00008B2
:1025BC001E44B4E7B9230020044F00200021FFF78C
:1025CC0077BF10B501210446FFF772FF2046BDE826
:1025DC001040FFF723BC704710B5047B14EA0103CD
:1025EC0010D0002201238B4203D3036953F822003D
:1025FC0010BD1C4218BF01324FEA430318BFD2B2C0
:10260C00DBB2F0E71846F3E7F8B516461F469DF81F
:10261C001820BDF81C300546FFF74AFE78B104219E
:10262C00FFF7DAFF044650B1284603F0B1F93A46F9
:10263C0031462846A047BDE8F84003F098B9F8BDEC
:10264C002DE9F74F0C9D9DF834B01F4681468A4604
:10265C00BDF83830144612B30DB307B392F80480AA
:10266C002A78618812F0080F14BF4022802240465D
:10267C00FFF71EFE98B10821FFF7AEFF064670B1BA
:10268C00404603F085F9CDE9005B3B4622465146B6
:10269C004846B04703B0BDE8F04F03F068B903B04B
:1026AC00BDE8F08FF8B5BDF8185017461A462B4602
:1026BC000446FFF7FDFDE0B175B90221FFF78CFF71
:1026CC000546B0B1204603F063F939462046A847C9
:1026DC00BDE8F84003F04BB91021FFF77DFF06462B
:1026EC0038B1204603F054F92A4639462046B04703
:1026FC00EEE7F8BD73B5BDF8184016461A462346EA
:10270C000546FFF7D5FDB8B1C4B92021FFF764FF2A
:10271C00044670B1284603F03BF9099B00939DF8E1
:10272C001C209DF8203031462846A047044603F073
:10273C001EF9204602B070BD8624FAE70024F8E7A3
:10274C002DE9F04186680446007803F021F9002554
:10275C0014273279EBB29A4203D8BDE8F04103F06A
:10276C0006B97B4332682078D15A02EB030801F09A
:10277C0036FA01214046FFF72FFF034608B12078B7
:10278C0098470135E5E7000070B5084D084E002468
:10279C002B78E0B2834200D870BD06EB0010437B6F
:1027AC00DB0701D5FFF7CCFF0134F1E7B92300209B
:1027BC00044F00202DE9F0411E4B06461E480C46E6
:1027CC0019780023DAB28A4203D300242046BDE8EC
:1027DC00F0815A1C00EB021515F8105CB54201D0C3
:1027EC001346EFE700EB0310437B03F001022CB11F
:1027FC0043F00103437342B10124E7E74473002A19
:10280C00FAD005464FF014080DE0FFF799FFDDE70D
:10281C001B6808FB04F41A19195B127B3046D209A9
:10282C00FEF7B8F93C46AB681A79671CE4B2A242D1
:10283C00EED8E1E7B9230020044F002010B5094B76
:10284C00094AC01AC0F38F0000239C5A844202EB41
:10285C00030101D1488810BD0433302BF5D1002081
:10286C00F9E700BF5C9303006A9003002DE9F04F79
:10287C0085B00F469346BDF8382001929DF8401064
:10288C007C7D88B3ACB3012C18BF04249DF8448024
:10289C00DFF88890002635461FFA88F836F80900CC
:1028AC00584519D109EB060090F803E01EEA040F15
:1028BC0012D090F802A08A450ED31EF0100FFA7BAE
:1028CC0019D04AB1CDE90231FFF7B8FFB7F810C003
:1028DC008445DDE9023110D00436B6F5927FDDD1A6
:1028EC00012005B0BDE8F08F002C14BF042408248F
:1028FC00CCE70224CAE7002AEED1A8450BD0019AF6
:10290C00AA4208D903F805A00F9A108801350130A6
:10291C001080ADB2E0E70020E3E700BF5C9303005A
:10292C002DE9F04F89B01D46BDF848409DF8503058
:10293C000193934623462A4607460E46FFF7B8FCFA
:10294C008DF81470ADF816608DF81850ADF81AB0FB
:10295C00ADF81C40814618B9012009B0BDE8F08FD4
:10296C0005A9FFF71AFB0028F6D09DF84C3000257E
:10297C009BB22E462F462C46029336E00C231FFAB0
:10298C0085F8B9F8002003FB08F8D9F80430B2F543
:10299C007C4F03EB080A1AD333F8080058452ED3A2
:1029AC00029BA3422DD902F039FF9AF8020002F0E3
:1029BC0021FF019B43B19AF8043013F0010F0CBFB7
:1029CC000520072002F016FF0134A4B219E033F8F9
:1029DC000820ADF81A20514605AA48460393FFF784
:1029EC00F3FA039B0028D7D10135B9F80820ABB214
:1029FC009A42C3D83C44A31B58425841ADE7013717
:102A0C00BFB20136B6B2EFE72DE9F04F8FB0984662
:102A1C009DF8703006930023BDF860908DF82C0063
:102A2C00ADF82E10ADF83220009305460E46174631
:102A3C0008A91A460BA80893199C9DF868B09DF834
:102A4C006CA08DF83080ADF83490FFF7D1FA089B6C
:102A5C00002B00F09880BAF1000F07D19A785A45F4
:102A6C0040F094801A79D10740F193801A7952077B
:102A7C0035D59A685168926809910A92987806F04F
:102A8C00EFF9089B059093F803A0BAF1020F17D841
:102A9C0003465246214609A806F087F9059B079084
:102AAC00524621460AA806F080F9079B012B01D05B
:102ABC00013014D14FF0870A50460FB0BDE8F08FAB
:102ACC00059B09985246214606F06FF90128F1D072
:102ADC00059B0A985246214606F067F9E8E7069BE3
:102AEC00002B59D1089B0394DB78CDF80090CDE9ED
:102AFC0001B33A4643463146284601F0BBF88246BC
:102B0C000028D9D1089B0394DB78CDF80090CDE94F
:102B1C0001B33A46434631462846FFF7EBFD824661
:102B2C000028C9D101230093069B224619460BA805
:102B3C00FFF75EFA82460028BED1089B3246294632
:102B4C002046FFF748FD43463A4631462846CDE934
:102B5C0001B4CDF80090FDF76FFD089B0394DB7872
:102B6C00CDF80090CDE901B33A46434631462846AC
:102B7C0001F07FF8CDF8009043463A46314628469E
:102B8C00FFF790FD98E74FF0860A95E74FF08D0A16
:102B9C0092E74FF0880A8FE74FF0000A8CE72DE997
:102BAC00F04786B007460F9D9DF84060BDF8384051
:102BBC000094CDE90156884691469A4601F005F8F5
:102BCC0098B102280ED84FF00003049308BF0123DC
:102BDC00CDE90263CDE9004553464A4641463846A5
:102BEC00FFF712FF06B0BDE8F0870120FAE730B519
:102BFC0087B000240125CDE903549DF82C50029593
:102C0C000A9DCDE90045FFF7FFFE07B030BD30B59A
:102C1C0087B000240125CDE903549DF82850009479
:102C2C00CDE901354023FFF7EFFE07B030BD10B5FD
:102C3C0086B04FF0010C0024CDE9034C9DF82840E0
:102C4C000294099C0194BDF820400094FFF7DCFE2F
:102C5C0006B010BD30B587B000258DF81030BDF82A
:102C6C0028308DF80C00ADF80E10ADF81220ADF830
:102C7C0014300095BDF830300B9A0D9C029502A9CA
:102C8C0003A8FFF7B5F918B914B1029B9B78237010
:102C9C0007B030BD1FB5089C03949DF81C400294EE
:102CAC00069C019400240094FFF7D4FF04B010BDDF
:102CBC002DE9F04FDFF8CCB099B04FF00008FFF7DA
:102CCC002DF95FFA88F5A84202D819B0BDE8F08F4B
:102CDC002D010BEB05034FF0000904930BEB0503DF
:102CEC005FFA89F49B681A79A24202D808F10108AC
:102CFC00E5E71B68142202FB043400262289B3B2D8
:102D0C009A4202D809F10109E8E70C231FFA86FA66
:102D1C0003FB0AFA6368059303EB0A070AF0EAF867
:102D2C0039462046FFF730F9049B218893F800C000
:102D3C00059B33F80A203B794FF0000E13F0400F3F
:102D4C000DF11C0A4FF04103CDE9023ECDE9000A1A
:102D5C0014BF802340236046FFF77CFF862806D0F3
:102D6C00B878FFF7F1F820B1504602F0DFFD0136DC
:102D7C00C4E7B878FFF7EEF80028F8D0504602F018
:102D8C00DAFDF4E7044F0020F0B597B01646BDF815
:102D9C007470042F48D90DF1130403944124029448
:102DAC0005ADBDF8704000940195FFF753FF044644
:102DBC00A0BB9DF81300A0F14103012B21D828469C
:102DCC0002F0B4FD0130C4B2E31CBB422CDA304635
:102DDC0002F024FD154E002002F00CFD9DF81300AE
:102DEC0002F008FD33881A19FE2A1DDC1048A4B223
:102DFC0022461844294602F069FC30880444348089
:102E0C0012E0A0F14303012B04D8284602F093FDF5
:102E1C000230D8E7FFF72EF80446D5E7304602F02B
:102E2C00FDFC204602F0E6FC17B0F0BD7C4F002004
:102E3C008C4F002010B500221346815CA1F13004A8
:102E4C00092C0AD8303B032A0B4402F1010218BFAB
:102E5C001B01042AF1D1184610BDA1F14104052C27
:102E6C0001D8373BEFE7A1F16104052C01D8573BA2
:102E7C00E9E70023EFE700002DE9F84F0A688B68BB
:102E8C0080465D1CD018D35C222B8B46154440F039
:102E9C00CE804C682E460023B11AA14280F0C78028
:102EAC00317822291DD1C3F10103301ADBF810202F
:102EBC00184490478146002800F0B98004464FF032
:102ECC000C0AB54217D3002323701023C8E9033929
:102EDC00DBF80030F61A0136CBF808600120BDE8AB
:102EEC00F88F5C2905D10136B11A8C4240F29F80D3
:102EFC0001330136D0E72B785C2B03D023700135DE
:102F0C000134DEE7721B002A08DD6B78662B67D074
:102F1C0016D82F2B12D00CD8222B0FD0DBF8143054
:102F2C0048469847DBF80000281ACBF80800002028
:102F3C00D5E75C2B02D0622BF0D10823237051E033
:102F4C00722B53D003D86E2BE8D10A23F6E7742BDF
:102F5C004FD0752BE2D1052AE0DDA81CFFF76AFFE4
:102F6C00A0F55C43B3F5806F0746D7D3A0F5584363
:102F7C00B3F5806F40D2AB1DF31A052BCEDDAB79C8
:102F8C005C2BCBD1EB79752BC8D105F10800FFF781
:102F9C0051FFA0F55C43B3F5806FBFD2264BC0F355
:102FAC00090003EA8727384300F580370C23B7F56F
:102FBC00803F30D3214A9742B0D84FF0F00C042018
:102FCC0000F1FF3E54FA8EFEA645FAB227D1012835
:102FDC0014BF42EA0C0202F07F022270044403E0A8
:102FEC0084F800A0013402231D446AE74FF00D035E
:102FFC00A4E74FF00903A1E77F284FF0060306D999
:10300C00B0F5006FD3D24FF0C00C0220D8E74FF0D0
:10301C00000C0120D4E74FF0E00C0320D0E702F0C5
:10302C003F0262F07F020EF80129BF09CCE7002DA8
:10303C007FF478AF284652E700FC0F00FFFF10002A
:10304C0010B540B1016871B142688368934206D2F1
:10305C00CC5C202C00D910BD01338360F5E7FAD18C
:10306C00013A8260F7E70846F5E710B1806800B1D5
:10307C0001B9704701390068F9E72DE9F0470F46AF
:10308C0018B900242046BDE8F0870029F9D08468DF
:10309C00002A3ED1002CF4D0A66ABEB3BE4241D069
:1030AC0007F1FF3A1AF8018F32F004FC4044B146A4
:1030BC00437816F8015B03F00303012B08BF08F1FA
:1030CC00200832F0F7FB28442B4642789AF800503F
:1030DC0002F00302012A08BF2033984526D032F0B3
:1030EC00E9FB284499F80060437803F00303012BB3
:1030FC0008BF203532F0DEFB30443346427802F014
:10310C000302012A08BF20339D420BD02468C1E77B
:10311C002468002CB5D0A16A21B1384632F0EEFCFF
:10312C000028F5D1A36A002BACD1AAE7002DB9D1A8
:10313C00F8E710B5034630209847044618B1302202
:10314C00002132F0F2FB204610BD000070B50F4D8F
:10315C00044604B970BDE3682668D90503D4A06899
:10316C0008B1FFF7F3FFE368DA0503D4206908B16F
:10317C006B689847E3689B0503D4A06A08B16B6839
:10318C00984720466B6898473446E2E7601B00205E
:10319C00000000002DE9F047064692B00C4609B934
:1031AC00002023E00F68002FFAD08D68D1F804803E
:1031BC0005F10409C1450BD80422AE49781932F047
:1031CC00D2FC28B90423F360C4F8089001200DE068
:1031DC0005F1050AD0450CD30522A749781932F020
:1031EC00C2FC30B90120F060C4F808A012B0BDE8F0
:1031FC00F087C1450CD80422A049781932F0B3FCF1
:10320C0030B90223F36001220023C6E90623DBE771
:10321C004545C5D27B5D222B07EB050104D1214628
:10322C003046FFF729FEE1E72D2B03D0A3F1300246
:10323C00092A51D800230193A8EB050502AFCA5CFB
:10324C00392A31D8302A05D22D2A03D02E2A01D082
:10325C002B2A05D1FA5401333F2B01D0AB42EED1CE
:10326C0012AA1344002501A9384603F8405C33F038
:10327C00B5FADDF804A0BA458046894690D0C6E977
:10328C0008897AA3D3E9002332F0DAF880B16FF021
:10329C0000420023C6E906230823F360A368AAEBC7
:1032AC0007071F44A76091E7452AD3D0652AD0E7CA
:1032BC000022734B4046494632F0B8F820B14FF02B
:1032CC0000424FF0FF33E5E74946404632F0CCF878
:1032DC00C117C6E90601DFE75B2B54D1E368B3F5F0
:1032EC007A7FBFF45DAF0133E3607B5D5B2B7FF4D2
:1032FC0057AF0135A5602046FFF7A2FED4E90123A4
:10330C0093425DD22268D25C5D2A01D1002527E070
:10331C00013B4FF00008A36045462069FFF709FF09
:10332C00074648B335B3C8F80000C0F80480A3685A
:10333C000133A3602046FFF783FE21463846FFF792
:10334C0029FFE0B12046FFF77BFED4E9012393422D
:10335C0015D22268D35C2C2BB846DED05D2B0ED157
:10336C00E368013BE3602023C6E90253A368013301
:10337C00A3602BE70546DAE7002D3FF411AF284692
:10338C00FFF7E4FE0CE77B2B7FF40AAFE368B3F5A1
:10339C007A7FBFF405AF0133E3607B5D7B2B7FF459
:1033AC00FFAE0135A5602046FFF74AFED4E90123A4
:1033BC00934205D22268D25C7D2A04D1002746E0D4
:1033CC00013BA360ECE64FF00008013BA3604746CD
:1033DC00C1462069FFF7ADFE0546002840D0002FFE
:1033EC003CD0C8F80000C0F80480A3680133A36087
:1033FC002046FFF725FE21462846FFF73DFD90B3FA
:10340C002046FFF71DFE2B69AB62D4E901239342E2
:10341C00C5F8109027D22268D25C3A2A23D1013306
:10342C00A3602046FFF70CFE21462846FFF7B2FEAC
:10343C00C8B12046FFF704FED4E90123934212D20F
:10344C002268D35C2C2BA846C3D07D2B0BD1E36810
:10345C00013BE3604023C6E9027387E70746C4E7F4
:10346C00002F3FF49DAE38468AE700BF0000C0FF36
:10347C00FFFFDF4194940300999403009F94030091
:10348C000000E0C12DE9F043334F89B00646884671
:10349C00914600211C2201A8002432F046FAC7E90B
:1034AC000044002E4DD03046019632F054FB2B4B8D
:1034BC000130029093E8070008AB03E90700FFF71F
:1034CC0038FE054678B3019870B1039B5BB9029B3B
:1034DC00042B06D90322224932F045FB08B90323F9
:1034EC00039301A800E02046FFF7AAFD01462846F9
:1034FC00FFF750FEA0B1B9F1000F06D1B8F1000FE3
:10350C0021D1284609B0BDE8F08301A8FFF798FD4A
:10351C00DDE90223934203D2019AD35C002BEDD058
:10352C002846FFF713FEDDE90223934201D382B153
:10353C00531EB8F1000F02D0F218C8F80020C7E9EA
:10354C0000630025DDE7019B039A1344C8F80030A3
:10355C00D7E71346EDE700BFBC230020601B00201B
:10356C009094030000221146FFF78CBF10B18368C2
:10357C00002003B9704701301B68FAE7002901DB12
:10358C00FFF773BD002070470022FFF776BD0122C4
:10359C00FFF773BD38B5C37B05460BB1832038BD2F
:1035AC00C47C2CB907F0A4F820B9EB7B002BF5D127
:1035BC008120F4E72046F2E738B5C37B05460BB112
:1035CC00832038BDC47C6CB9017D82898B1C9A42E6
:1035DC000AD3806802F085F90EF006FB30B9EB7B5C
:1035EC00002BEDD18120ECE78020EAE72046E8E7CC
:1035FC00C37B10B504460BB1832010BDC37C1BB13B
:10360C00012B10D08120F8E7017D82898B1C9A4216
:10361C000CD3806802F065F90FF0FEF940B9E37B3A
:10362C00002BE9D1EEE70FF00FFAF7E78020E4E783
:10363C000020E2E7C37B2DE9F041044613B183205F
:10364C00BDE8F081C37C032B18D8DFE803F0021926
:10365C003E4D017D8289CB1C9A4201D28020EFE73E
:10366C008068455C013102F03CF9014628460FF0B8
:10367C00C1F8002847D1E37B002BE0D18120DFE7A4
:10368C00037D8289591C8A42E8D39DB2691C881C2F
:10369C008242E3D3A068C65C02F023F90746A06817
:1036AC00B4F80C800335284402F040F9284401306A
:1036BC008045D3D3A289A068294602F019F939466E
:1036CC00024630460FF09CF8D3E7007DA289831C9C
:1036DC009A42C3D383B2A5689A1C01332A44E95C8D
:1036EC00285C0FF093F8C4E7017D8289CB1C9A42C9
:1036FC00B4D38068455C013102F0F3F801462846EA
:10370C000FF08AF8B5E700209AE72DE9F34790F817
:10371C000FA00446BAF1000F40F03A81C37C042B91
:10372C0000F0C6800AD8012B67D047D3022B00F0DB
:10373C009D80032B00F0AD80812045E0402B00F0F4
:10374C00CD8023D8062BF7D1037D8289591C8A4260
:10375C0039D39DB2A91C8A4205F1010733D3881CC9
:10376C00824230D3A068C65CC75D02F0BAF802464C
:10377C00002E40F0B080A1682B1D0535CB5C0D44AC
:10378C0000953946304612F0B3FC2DE0412B00F089
:10379C00B980422BD0D1037D8289191D8A4212D364
:1037AC009DB28068691CC65C02F09BF80335A36867
:1037BC0001465A5D304614F0FBFA15E0037D828910
:1037CC00191D8A4203D2802002B0BDE8F0879DB259
:1037DC008068691CC65C02F084F80335A368014656
:1037EC005A5D304612F068FC002840F0D380E37B31
:1037FC00002B14BF83208120E6E7037D8289591CAE
:10380C008A42E0D39DB2691C881C8242DBD3A0683B
:10381C00C65C02F066F8A289291D8A42074605F1AA
:10382C000303D0D3A06810F80380DEB902F059F876
:10383C0006352946A2898146A06802F059F88246CD
:10384C00A068284402F072F801300544A06810FA10
:10385C0085F5CDE900A54B4642463946304612F077
:10386C0081FCC1E74FF6FF795546F2E7037D82896B
:10387C00191D8A42A7D39DB28068691CC65C02F0F0
:10388C0030F80335A36801465A5D304612F01EFC31
:10389C00AAE7017D8289CB1C9A4294D38068455C4F
:1038AC00013102F01EF80146284612F015FC9BE788
:1038BC00037D8289191D8A4285D39DB28068691C5B
:1038CC00C65C02F00EF80335A36801465A5D30461B
:1038DC0012F008FC88E7FF23002551E7037D82895D
:1038EC00191D8A42FFF46FAF9DB28068691CC65CDB
:1038FC0001F0F7FF0335A36801465A5D304614F01A
:10390C003BFA71E7037D8289591C8A42FFF45BAF55
:10391C009DB2691C881C8242FFF455AFA068C65C3E
:10392C0001F0DFFFA289291D8A42074605F1030336
:10393C00FFF449AF881C8242FFF445AFA06810F831
:10394C00038001F0CEFF8146A068B4F80CA00635C8
:10395C00284401F0EBFF284401308245FFF433AFDB
:10396C00A289A068294601F0C3FF8246A0682844BA
:10397C0001F0DCFF01300544A06810FA85F5CDE9B3
:10398C0000A54B4642463946304614F0FFF92BE76A
:10399C00832019E7002017E7C37B2DE9F743044682
:1039AC001BB1832003B0BDE8F083C37C412B33D023
:1039BC00422B42D0402B2DD1037D828903F1100183
:1039CC008A424BD39DB2806805F10801C61801F0FC
:1039DC0088FF05F10A030746A068A28910F8038046
:1039EC0005F10B0101F07DFF05F10D018146A28966
:1039FC00A06801F076FF0F35A3685B5D4246CDE908
:103A0C00000339464B46304614F0D8F940BBE37BF3
:103A1C00002BC6D18120C5E7057D8289EB1C9A421B
:103A2C001CD3AAB28068961C511CD31C0344825D23
:103A3C00415C405D14F0C8F9E8E7057D8289EB1C18
:103A4C009A420BD3AAB28068961C511CD31C034417
:103A5C00825D415C405D14F0D5F9D7E78020A1E789
:103A6C0000209FE7C37B10B5044693B103691B4A42
:103A7C0023F47F0393420ED1017D82898B1C9A42E1
:103A8C0027D3806801F02DFFFCF780FF18BBE37B88
:103A9C0093B9812011E0124A93420AD1037D8189A6
:103AAC0003F10802914214D380681844FCF75CFFC0
:103ABC00ECE70C4A934201D0832010BD037D818931
:103ACC0003F10802914204D380681844FCF798FF74
:103ADC00DCE78020F1E70020EFE700BFA210000632
:103AEC00A2100010A210001138B5C37B002B437D2F
:103AFC0014BF8325C325012B04463ED10368028ADB
:103B0C0059885879FEF700FCB8B323685B88082BFA
:103B1C000BD00ED8042B1FD003D8032B17D028465C
:103B2C0038BD052B1DD0062BF9D1E37BF3B18325D2
:103B3C00F5E7B3F5806FF8D002D8B3F5407FF3E723
:103B4C00B3F5805F14D04FF610429342ECE7204659
:103B5C00BDE83840FFF730BD2046BDE83840FFF7E0
:103B6C0069BD2046BDE83840FFF7CFBD8125D6E7BB
:103B7C002046BDE83840FFF70FBF637D002BCED148
:103B8C002368228A59885879FEF7B5FB0028C6D0DD
:103B9C0023685B88032B12D006D8002BBFD120469C
:103BAC00BDE83840FFF7F6BC192BBED04FF61042DB
:103BBC009342B4D12046BDE83840FFF753BF2046AE
:103BCC00BDE83840FFF714BD704701207047012055
:103BDC007047012070477047B52070477047704799
:103BEC00002070470020704700207047002070476D
:103BFC00002070470020704700207047002070475D
:103C0C00012070470120704700207047002070474A
:103C1C0000207047002070470020704770478420B8
:103C2C007047704770477047704701207047704766
:103C3C0070477047012070470020704770477047ED
:103C4C00002070476FF02F00704700207047000075
:103C5C00034B1B681878012808BF0220704700BF6F
:103C6C005C240020704703207047704770477047F2
:103C7C007047704700207047002070470020704745
:103C8C0000207047002070470020704700207047CC
:103C9C00002070477047B520704700207047002007
:103CAC00704770477047704700207047704701227B
:103CBC000521104605F020BA04220521012005F04B
:103CCC001BBA03220521012005F016BA0222052198
:103CDC00012005F011BA05221146012005F00CBA9D
:103CEC0006220521012005F007BA412205210120F9
:103CFC0005F002BA40220521012005F0FDB942224F
:103D0C000521012005F0F8B900220521012005F05C
:103D1C00F3B902220621012005F0EEB94222062158
:103D2C00012005F0E9B941220621012005F0E4B992
:103D3C0001220621104605F0DFB9402206210120A0
:103D4C0005F0DAB900220621012005F0D5B90322CD
:103D5C000821012005F0D0B902220821012005F02C
:103D6C00CBB907220821012005F0C6B9062208218B
:103D7C00012005F0C1B904220821012005F0BCB9CD
:103D8C0005220821012005F0B7B9002208210120E5
:103D9C0005F0B2B901220821104605F0ADB9402258
:103DAC000321012005F0A8B901220321104605F0DA
:103DBC00A3B900220321012005F09EB902220321A0
:103DCC00012005F099B901220421104605F094B99F
:103DDC0004221146012005F08FB903220421012091
:103DEC0005F08AB905220421012005F085B90022CD
:103DFC000421012005F080B947224FF440710120C5
:103E0C0005F07AB905224FF44071012005F074B920
:103E1C0002224FF44071012005F06EB94C224FF490
:103E2C004071012005F068B909224FF4407101205E
:103E3C0005F062B903224FF44071012005F05CB922
:103E4C0006224FF44071012005F056B900224FF4C0
:103E5C004071012005F050B90A224FF44071012045
:103E6C0005F04AB907224FF44071012005F044B91E
:103E7C0004224FF44071012005F03EB901224FF4A9
:103E8C004071104605F038B94B224FF440710120B7
:103E9C0005F032B908224FF44071012005F02CB91D
:103EAC0044224FF44071012005F026B942224FF410
:103EBC004071012005F020B943224FF440710120DC
:103ECC0005F01AB940224FF44071012005F014B9E5
:103EDC0041224FF44071012005F00EB9012200215E
:103EEC00092005F009B9000002292DE9F84F054613
:103EFC008A4602D963B1042908D85B49022003F031
:103F0C0099F94FF0000B5846BDE8F88F42F00402C7
:103F1C000C9C2A70002B3ED06B701B0AAB700327D5
:103F2C0004F0AAFC07F1020BE85501379DF8283084
:103F3C00EB554FF000095FFA89F30B9AD65C002E13
:103F4C00E1D0732E50D8A6F14C01C9B2162904F158
:103F5C000408276829D8454B23FA01F1C94311F00D
:103F6C0001012CD160684C2E04F1080884B214D1E4
:103F7C004FF6FF7120468C4214BF022100210BEB3F
:103F8C0004020A4492455EDA62183949334602202B
:103F9C0003F050F9B5E70127C2E7532E0DD1C0B29B
:103FAC00B0F1FF0118BF0121E9E76C2E07D13846AB
:103FBC0001F0C1FC023084B200210846DFE7732E09
:103FCC0004D1384601F0B2FC0130F4E7A6F130041C
:103FDC00E2B2092A01D8A4B2EEE7A6F14102062A00
:103FEC000AD8A6F13704F6E7752E0BD0762E10D032
:103FFC00782E10D0772E10D032461E49022003F0B6
:10400C0019F97EE7012104F10408206800242746F1
:10401C00B5E70221F7E70321F5E70421F3E70CF1FB
:10402C00010E013A05F80C00D2B2000A1FFA8EFC00
:10403C00002AF4D18B441FFA8BFB84B137B9334679
:10404C0022460D49A3E7DC460A46F1E705EB0B00D7
:10405C002246394601F03AFBA3441FFA8BFB09F1C7
:10406C000109444667E700BF27AF03008100400009
:10407C0065AF03004CAF030098AF030010B5044CC0
:10408C0020600448018004490A60044A136010BD92
:10409C00CC230020D0230020C8230020C4230020E0
:1040AC0070B586B00AAC0D4654F8046B0B490594F8
:1040BC0009880093CDE9016413460246084800685C
:1040CC00FFF712FF074B1B681880074B1B684FF458
:1040DC0082525D80DA8006B070BD00BFD023002014
:1040EC00CC230020C8230020C423002008B430B502
:1040FC0086B009AB0C4653F8045B0D49059309884F
:10410C000092CDE9015302460A4800230068FFF7EC
:10411C00EBFE094B1B681880084B1B684FF482524E
:10412C005C80DA8006B0BDE8304001B0704700BF5B
:10413C00D0230020CC230020C8230020C42300203F
:10414C0007B5064B1B681A880091054B05491B687F
:10415C000968FCF747FE03B05DF804FBC823002098
:10416C00CC230020C42300200021FFF7E9BF00006E
:10417C0007B5074B1B681B880192064A1268009210
:10418C00054A1268FCF79BFE03B05DF804FB00BF08
:10419C00C8230020CC230020C42300200022FFF7DA
:1041AC00E7BF000007B5064B1B681A880091054B4A
:1041BC0005491B680968FCF769FE03B05DF804FB50
:1041CC00C8230020CC230020C42300200021FFF7AB
:1041DC00E9BF00001FB5094C24680394084C2468FF
:1041EC0024880294BDF818400194064C2468648815
:1041FC000094FCF790FE04B010BD00BFCC2300204F
:10420C00C8230020C4230020024B1B68187159716D
:10421C00704700BFC4230020F8B50D468C680A68AF
:10422C0026490646202009F0D6FA6B687BB924494A
:10423C00202009F0D0FA202011F0E4FF21492020A1
:10424C0009F0DEFA2020BDE8F84011F0DBBF002EAB
:10425C00F1D01D4D1D4E1E4F013C14F8013F23B9EA
:10426C001849202009F0CCFAE5E7752B16D0762BEF
:10427C0016D0772B16D0732B16D0722B16D0712B21
:10428C0016D0622B16D06E2B16D01249124A2A2B3E
:10429C0018BF1146202009F09EFADEE72946F9E7FF
:1042AC003146F7E73946F5E70C49F3E70C49F1E7F6
:1042BC000C49EFE70C49EDE70C49EBE78BEB0300FE
:1042CC005AB003000BB0030018B003000CB003008D
:1042DC0023B0030061B003005EB003002FB00300F5
:1042EC0039B0030044B003004FB0030059B00300D1
:1042FC00F0B5214A92F87B30184452FA80F01F4BEB
:10430C0090F865C090F866501F78A5EB0C05002658
:10431C00EDB23046F4B2A54225D90CEB060313449A
:10432C005B7811B10CB92D2B17D0782B1FD0582BD3
:10433C0005D108B137240AE0013C012C14D9602BBB
:10434C0017D8402BF6D83A2B34BF302400241B1B33
:10435C00DBB29F4203D900FB07300136DAE70523B5
:10436C0082F879300020F0BD10270020F5E70028F6
:10437C00E2D05724EBE700BFD22300206C1B0020B7
:10438C00014B1B6818687047484F0020094A0023EE
:10439C00FF21137082F8783082F8653082F877301C
:1043AC0082F8793082F87A1082F87B30024A1360F6
:1043BC00704700BFD2230020484F0020034B93F8D6
:1043CC00770093F87B30C01AC0B27047D22300201C
:1043DC000021FFF78DBF000010B50A4B93F87B202E
:1043EC00024453FA82F292F8652013445C78A4F1EB
:1043FC002D0359425941FFF77BFF2D2C08BF40423A
:10440C0010BD00BFD223002030B50C4A92F87B308F
:10441C000344C043DBB2C00F39B1D51895F86640E0
:10442C0095F86550641B241A0C7042FA83F393F8C8
:10443C0065301844024B184430BD00BFD223002015
:10444C00D3230020F7B50E460DF1070115461C4687
:10445C00FFF7DAFF9DF80730AB42074688BF8DF8AF
:10446C0007501CB19DF807402C1BE4B22246304685
:10447C00002101F087F930199DF80720394601F029
:10448C0025F99DF8070003B0F0BD38B508220C469D
:10449C000123FFF7D7FF04F10803621E043413F85D
:1044AC00011D12F8015F1D70A3421170F7D138BDC8
:1044BC0038B5014605460120FFF7AEFED5E90143AC
:1044CC006CB91C46084D236863B12946202009F0BD
:1044DC0082F921460020FFF79FFE0C34F3E71B788E
:1044EC006E2BEFD038BD00BFDEC0030008B5044909
:1044FC00202009F070F92020BDE8084011F082BEA0
:10450C00CCAF030038B5FFF7F1FF064D002461195D
:10451C000C34631953F80C3C03B938BD0020FFF779
:10452C007BFEF4E7B89403002DE9F84F1F4B204DA8
:10453C0053F820201F49202009F04DF92B681BB996
:10454C00BDE8F84FFFF7DEBF1B4FDFF874A0FFF795
:10455C00CDFF0026B94697F87B30F4B2013B9C4264
:10456C0004DB2868BDE8F84FFFF7A2BF47FA86F3D3
:10457C004C4493F865800023C84494F8662094F862
:10458C006510521A03F1010BD2B2DBB2934205D380
:10459C000A49202009F01FF90136DCE74344514653
:1045AC005A78202009F017F95B46E6E7701B0020CB
:1045BC00484F0020C7AF0300D2230020DFC0030008
:1045CC00C2BA03002DE9F74F824C94F87730002BD8
:1045DC0000F0A380804B1B7813F0010F04F101074E
:1045EC001FD000257D4E14E06319202093F866201F
:1045FC0093F86530D21A44FA85F3D2B293F8651069
:10460C00394411F0FAFD3146202009F0E4F8013567
:10461C00EDB294F87730AB42E6D87149202009F01E
:10462C00DAF894F877300193DFF8C0E16D4B00268F
:10463C0071461EF8012B91F801C04FF00008ACEB4D
:10464C00020C07EB020A5FFA8CFC4546186800283E
:10465C0053D00138D14619E02AB9002D4BD04FF078
:10466C0001080C33F2E719F8011BA1F1410BBBF166
:10467C00190F98BF2031A2F1410B98BFC9B2BBF101
:10468C00190F9CBF2032D2B28A42EAD1A9EB0A019F
:10469C00614510F8012FDFD1002ADED11D46524BA7
:1046AC001D6094F87B30013384F87B30D5E901230D
:1046BC000136F6B2002A36D01B786E2B32D03F2B47
:1046CC0024D04FF000094F464FF0070A4FF0040B6F
:1046DC005FFA89F0811994F877C0AA68C9B28C4541
:1046EC00D35D28D893B117447B782A2B1CBF0323A6
:1046FC0084F879300AE01D46B3E7B8F1000F01D118
:10470C00002DCCD1022384F87930002594F879005F
:10471C0000285CD1686800F02FF903B0BDE8F04FB9
:10472C00FFF734BE1346019AB24281D8032284F8B3
:10473C0079201D46EAE7732B08D8712B0AD2002B7F
:10474C0043D0622B30D084F879A016E0A3F1750227
:10475C00022AF8D8752B1ED0762B1FD0732B20D0A5
:10476C00722B47F6FF7818BF4FF0FF380121FFF787
:10477C00BFFD404501D984F879B0AB683B4409F1E1
:10478C0001095B782A2B94F879301CBF0137FFB2F2
:10479C00002B9DD0BAE74FF0FF08E7E74FF6FF7804
:1047AC00E4E74FF07F08E1E794F87B30184454FAC3
:1047BC0080F090F8653023445B78222BDDD07B2B86
:1047CC00DBD0052384F87930D7E70323FAE7FFF72A
:1047DC00ABFEA2E7D22300204E240020DFC0030052
:1047EC0009B00300B8940300484F00203724002080
:1047FC002DE9F3415E4C5F4F06460D464FF0000825
:10480C0066B90DF10701284611F0F0FC78B12628A5
:10481C0000F0A980012384F879304BE0002D00F0E2
:10482C00A28016F8013B8DF80730013DEDB23A78C5
:10483C009DF807303B700D2A01D10A2BE0D00D2BCF
:10484C000CD0A3F10A025142514122788846042A25
:10485C00D6D8DFE802F0051D263C31000121F4E733
:10486C0021B1FFF7AFFE4FF00108C9E7202B63D051
:10487C00222B07D10223237094F87820642A5DD16F
:10488C000623C8E77B2B01D10323F4E70123F2E7CE
:10489C0009B9202BF0D194F87730112B3FD1032399
:1048AC00B9E7222BF7D00029E6D0052384F879301C
:1048BC004FF0010804232370B8F1000FA0D094F836
:1048CC00790008B1FFF730FEFFF760FD98E77D2B0C
:1048DC0094F87A0003D1FF28DDD005239BE7602BE9
:1048EC0013D8402B13D8392B8CBF002230229A1AA4
:1048FC00D2B20F2A10D8FF280BD002EB0012FF23E4
:10490C008DF8072084F87A30B6E75722EFE7372284
:10491C00EDE784F87A2073E7202BDED170E70133C2
:10492C00DBB284F87730234494F8782083F8652040
:10493C0000232370002994D1884661E72378012B4A
:10494C0009D19DF80730A3F1410119299CBF2033EF
:10495C00DBB28DF80730A3189DF80710597001329F
:10496C0084F878204CE7404602B0BDE8F08100BFE7
:10497C00D22300204F24002010B5054B0446187894
:10498C0000F0EEFFA047BDE8104000F0F0BF00BF04
:10499C006A2800207FB501A8FCF7F0FD01AA0349A5
:1049AC00042002F047FC07B05DF804FB39B30300A8
:1049BC002DE9F04F18228DB0FF230DEB02000021E2
:1049CC008DF80A3030F0B1FF0DF10B014FF0FF30D4
:1049DC00FFF71AFDFFF7DEFF41F202029D490420AA
:1049EC0002F028FC04A8FDF7DBF806A90DF10A007B
:1049FC00FDF7DCF80420984902F038FC042002F0A2
:104A0C0005FC10B104A802F07DFB9DF922309DF845
:104A1C0023209249042002F00DFC23F0EBF8831EB6
:104A2C00DBB2FC2B05462AD88D498E4E8E4FDFF813
:104A3C00A482042002F0FEFB01242246314604200D
:104A4C0002F014FC03A9E0B223F07EF89128024690
:104A5C0000F09580932800F09280002840F094801C
:104A6C009DF90C1000919DF80E309DF80D207F499A
:104A7C00042002F0DFFB0134E3B2AB42DDD3BDF81E
:104A8C002040FCF79FFE224603467949042002F0A1
:104A9C00EDFB0420774902F0E9FB042002F0B6FBA1
:104AAC0010B106A802F02EFB7349042002F0C2FBE1
:104ABC0028F07AFA044628F071FA224603466F4928
:104ACC00042002F0B7FBFDF791F86D49042002F0C9
:104ADC00CDFB9DF80A20FF2A5BD06A49042002F026
:104AEC00C5FB6549DFF8F081042002F0A3FBFDF75C
:104AFC0069F8654A65490346042002F09BFB22F0E5
:104B0C00EBFF63490246042002F0B0FBFDF766F8A8
:104B1C000446FDF769F8224603465E49042002F07C
:104B2C0089FBFDF7FBF95C490246042002F082FB8D
:104B3C000025FDF7F3F9ECB2A0422FD8012257491A
:104B4C00574C042002F076FB002000F009FF554B77
:104B5C0055490022042002F06DFB236853B11A78EA
:104B6C005249042002F066FB236851495A7804200C
:104B7C0002F060FB00F0FBFE0DB0BDE8F08F394693
:104B8C00042002F057FB76E74146042002F052FB6A
:104B9C0071E74849042002F069FBA2E7464B474FF6
:104BAC0003EB04162046D6F80890FDF729FC824644
:104BBC002046FDF7B9F9002814BFC346BB46204672
:104BCC00FDF71EFC03F06EFD002814BF404638466E
:104BDC005B46009052463A49DFF800B1042002F0DF
:104BEC0045FBB1797388327B0191B1880091042027
:104BFC00344902F01FFB002699F80430F4B2A342AA
:104C0C0001D8013595E7D9F800702F482F491423A6
:104C1C005C4307EB040A3B5B9AF90C2011EA220176
:104C2C0038BF01460A460420594602F01FFB0420F7
:104C3C0002F0ECFA38B150463C5BFDF793F90146B3
:104C4C00204603F0A3FD2249042002F0F3FA0136BA
:104C5C00D2E700BFFCB0030017B1030043B103005F
:104C6C001EB1030034B1030058B103003BB1030083
:104C7C0063B1030081B10300B18C03008AB103005E
:104C8C00ABB1030093EE030017F00300BEB10300B9
:104C9C00CCB10300E0B10300EFB1030063B2030039
:104CAC005C2400206FB203007DB2030089B20300C4
:104CBC009BB20300B6B10300044F0020DBB003002D
:104CCC00FAB103001AB20300F0B00300E4B0030021
:104CDC000BB0030068F80300D3B003004CB2030020
:104CEC0008B50020FFF774FBBDE8084080B202F065
:104CFC000BBB08B50020FFF76BFBBDE8084080B28A
:104D0C0002F016BB70B5074D074E00240C34631926
:104D1C0053F80C2C02B970BD3146042002F08AFA0B
:104D2C00F4E700BFB89403008BEB030008F008BA5B
:104D3C0008B50020FFF74CFB054B1A7810F0FF0F5D
:104D4C0014BF42F0010222F001021A7008BD00BF2C
:104D5C004E2400202DE9F8431BF090FF104EDFF895
:104D6C004C80DFF84C9007460025EBB256F83340E8
:104D7C000CB9BDE8F88358F823204946012002F00D
:104D8C0075FA23782BB90749012002F053FA013543
:104D9C00EBE762680449D21B012002F04BFAF6E7FC
:104DAC00288703002AB3030033B30300D01A002072
:104DBC0023B3030010B52CF053F80D490446012021
:104DCC0002F054FA022C0DD0032C0DD0012C0DD175
:104DDC000849012002F04AFA07490120BDE81040B9
:104DEC0002F028BA0549F4E70549F2E70549F0E76E
:104DFC00B4B20300D1B203001DED0300D7B203001F
:104E0C00E6B20300F6B203002DE9F843114EDFF8C9
:104E1C0054800025FDF782F8ECB2A04201D8BDE821
:104E2C00F8832701204616F80790FDF77DF80A4B0A
:104E3C000A49002818BF43464A46012002F016FAD8
:104E4C00F05DFCF730FF0649012002F0F3F9013563
:104E5C00E0E700BF044F0020A8B6030018B303001E
:104E6C000BB003009EB6030008B50020FFF7B0FAA4
:104E7C00094B1B681B681978A1F16503594259410C
:104E8C00C0B2FDF797FC28B904490120BDE80840E1
:104E9C0002F0D0B908BD00BF484F0020FEB203009D
:104EAC0049BA89B24840C0F303114140080380B2AB
:104EBC004840C3B280EA431070470000014B187899
:104ECC00704700BF50240020014B1870704700BF82
:104EDC00502400201FF038B838B5A0F14303054624
:104EEC000A2B31D8DFE803F0060A0A1212303030F0
:104EFC0030301100BDE838401BF0ACBA1BF076FA2C
:104F0C0020B11BF0A7FA0028FBD138BD114C20783A
:104F1C000028FAD10123443D237011F0EBFD032D41
:104F2C000DD8DFE805F00606090240F601001BF07B
:104F3C0075FE00232370E8E740F60200F7E77A21BC
:104F4C00054807F0FBF9F4E78C210348BDE838402D
:104F5C0007F0F4B95124002048B3030070477047A0
:104F6C00704770477047704770477047704770477D
:104F7C00704700207047704770470020704770479B
:104F8C000020704770470120704701207047704720
:104F9C00704770477047704770470000014B012203
:104FAC001A707047984B0020014B00221A70704702
:104FBC00984B0020014B1878704700BF984B00208D
:104FCC0084B004AB03E9070004B070472DE9F04F3F
:104FDC0024220C4689B00021054630F0A6FC204660
:104FEC00FEF7C0FA0446002800F0E0807549FEF791
:104FFC00CEFA002800F0A48072492046FEF7C7FACA
:10500C00D0E9080130F058FAC3B200936E4920463B
:10501C00FEF7BDFA002800F095806B492046FEF79C
:10502C00B6FAD0E9080130F047FAC3B201936749E8
:10503C002046FEF7ACFA30B164492046FEF7A7FAD9
:10504C00006930F06DFD029061492046FEF79FFA31
:10505C0030B15F492046FEF79AFA006930F060FDE6
:10506C0007465C492046FEF792FA30B15949204672
:10507C00FEF78DFA006930F053FD0646564920467E
:10508C00FEF785FA30B154492046FEF780FA0069E4
:10509C0030F046FD039051492046FEF778FA00287F
:1050AC0052D04E492046FEF772FAD0E9080130F092
:1050BC0003FA5FFA80F84A492046FEF768FA30B1E5
:1050CC0047492046FEF763FA006930F029FD45494F
:1050DC0004902046FEF758FA0590FEF747FA5FFA5F
:1050EC0080FA52464049012002F0A4F80598FEF7D8
:1050FC003DFA1823584330F0EBFB0023024681465F
:10510C00534509F1180921D120460592FEF71EF8E6
:10511C009DF800302B709DF804306B70029B059A43
:10512C00EE60C5E90137039B2B61049B85F8148065
:10513C002846AB6185F81CA02A6209B0BDE8F08F47
:10514C00009063E7019072E78046B4E71946059832
:10515C0007920693FEF712FA24498346FEF714FAD7
:10516C00006930F0DDFC224949F8100C5846FEF776
:10517C000BFAD0E9080130F09FF91E4909F80C0C24
:10518C005846FEF701FA006930F0CAFC1A4949F892
:10519C00080C5846FEF7F8F9D0E9080130F0C4F9CC
:1051AC00069B079A49E906010133A9E702468246A4
:1051BC0004908046039006460746CDE90100009016
:1051CC00A2E700BFFDC7030003A8030013B503004B
:1051DC0016B503001AB503001DB5030021B5030075
:1051EC00C9AA030024B5030028B503004AA703008D
:1051FC00C0AC03001FB503001BA70300F7B50546A1
:10520C0010220846002131F079FB070EC0F3074647
:10521C0084B2009433463A460449012002F00AF85D
:10522C0028462F806E806C6003B0F0BDBFB40300C5
:10523C002DE9304C9DB06B4683E80300BDF80000AF
:10524C000199030A0206BDF802004FEA004B4FEA2F
:10525C00104C1BEB02044CEB030514EB010A45F15B
:10526C00000B52465B460F49012001F0E3FF52460A
:10527C000D495B4603A830F021FC002303A88DF8F0
:10528C00143030F068FC30F023FB03A9044630F0F6
:10529C003FFC03AA0549012001F0CCFF20461DB0BC
:1052AC00BDE8308C4BD80300D0B30300D5B303005A
:1052BC00F7B505460C460A4601200F4901F0BAFF26
:1052CC00002300220D49012001F0B4FF10222046DA
:1052DC00002131F0DDFB8FB2060C84B20094334612
:1052EC003A460749012001F0A5FF2846C5E900769A
:1052FC00AC6003B0F0BD00BF3CB5030051B503007A
:10530C005CB503002DE9F0499FB001AB83E80700C1
:10531C00DDF80880039C184F201C4FF000054FEA65
:10532C00084B4FEA184C45F582711BEB00024CEB15
:10533C0001030120114901F07DFF002639464FF48D
:10534C008272002305A830F0B9FB42463346394639
:10535C0006A830F0B3FB22462B46394607A830F09E
:10536C00ADFB0D208DF8206030F0B2FA05A930F0BD
:10537C00CFFB1FB0BDE8F08951B403003BB4030070
:10538C00F7B500240F4E8DF8064005460F4615F86C
:10539C0014308DF8043005EB440310225B788DF843
:1053AC000530002101A831F0A9FA22463855C3B2C4
:1053BC0031460120013401F03DFF082CE7D103B048
:1053CC00F0BD00BFF0B40300F0B50C4F9BB0451E10
:1053DC00002401AE301915F8012F3946023430F093
:1053EC006DFB102CF6D101A830F0B5FB30F070FA43
:1053FC0001A930F08DFB1BB0F0BD00BF1FC1030035
:10540C00F7B500240F4E8DF8064005460F4615F8EB
:10541C0014308DF8043005EB440310225B788DF8C2
:10542C000530002101A831F069FA22463855C3B283
:10543C0031460120013401F0FDFE122CE7D103B0FE
:10544C00F0BD00BF00B50300FFF7BEBF2DE9F04370
:10545C0004469BB00F46002937D00A4601201C4950
:10546C00DFF87C9001F0E6FE4FF000084646791E0E
:10547C00B14201ABA2680CBF1649494603EB0800C8
:10548C00236930F01BFBA06830F065FB05462069F2
:10549C0030F061FB103501364544B74205EB00088E
:1054AC0004F11804E3DC01A830F055FB30F010FADD
:1054BC0001A9044630F02CFB22460749012001F0DB
:1054CC00B9FE20461BB0BDE8F083044CF9E700BFE1
:1054DC00EEB30300F9B3030022B403000BB00300D6
:1054EC000DB4030084B010B59CB01EAC84E80F0062
:1054FC000F49019122999DF879309DF878200091FF
:10550C0003A80C4930F0DAFA03A830F024FB30F091
:10551C00DFF903A9044630F0FBFA224606490120C4
:10552C0001F088FE20461CB0BDE8104004B0704766
:10553C0009B60300E1B50300CBB5030084B010B588
:10554C009CB01EAC84E80F000F49019122999DF884
:10555C0079309DF87820009103A80C4930F0AEFA10
:10556C0003A830F0F8FA30F0B3F903A9044630F090
:10557C00CFFA22460649012001F05CFE20461CB001
:10558C00BDE8104004B07047BDB30300E1B50300A3
:10559C00CBB5030084B010B5ADF5067D88AC84E8BE
:1055AC000F009DF83C129098FFF750FF18490446E5
:1055BC000246012001F03EFE8E9906919DF83412B0
:1055CC009DF821329DF82022CDE904418C9903915C
:1055DC008B9902918A9901918999009109A80D4999
:1055EC0030F06CFA09A830F0B6FA30F071F909A96C
:1055FC00044630F08DFA22460749012001F01AFECC
:10560C0020460DF5067DBDE8104004B0704700BF84
:10561C0057B4030065B40300CBB503002DE9F04784
:10562C00204DDFF8A090DFF8A0A000245FFA84F8EA
:10563C00404622F0EBFAFF2806460CD122461A49C6
:10564C00287808F0DDF82878013410F0DBFD142CF4
:10565C00ECD1BDE8F087154B59F82420144947B21A
:10566C0013EA270338BF5346287808F0C9F8002FEF
:10567C00E9DA14B1B8F1030F08D10E4B0E492878B2
:10568C0016F0010F18BF194608F0BAF80A2CDAD137
:10569C000A4B0B49287816F0010F18BF194608F071
:1056AC00AFF8D0E75D1B0020B1B603000BB00300D0
:1056BC00D9B6030074B603008AB603009CB6030087
:1056CC00A6B6030020B603003ABF03008842F0B52B
:1056DC004FEA92031AD89BB29E00871904460D46D6
:1056EC0004370434BC4205F104053AD1C3EB8333CF
:1056FC00314402EB8303013E304411FA83F39942A7
:10570C0020D011F8012B00F8012FF8E7541E20448B
:10571C009BB22144A0EB830604460D46043E043C98
:10572C00B442A5F104050ED16FF003045C43C3EB46
:10573C00833302EB830321449BB201342044CB1A04
:10574C00994209D1F0BD2F792771EF78E770AF78C6
:10575C00A7706F786770E2E711F8012900F8012D46
:10576C00EEE715F804CC04F804CC15F803CC04F8D7
:10577C0003CC15F802CC04F802CC15F801CC04F8D3
:10578C0001CCAEE70244904200D1704700F8011BF7
:10579C00F9E710B5013801390AB9104606E010F8DE
:1057AC00014F11F8013F9C4201D0E01A10BD013AA3
:1057BC0092B2F1E70A4B10B500241C70FCF702F80A
:1057CC00084B21461880FF220748FFF7DBFF074BE9
:1057DC0007481C8021460C22BDE81040FFF7D2BFC1
:1057EC00C12800208A4F00208C4F00207C4F0020C5
:1057FC007E4F002007490B88FE2B9FBF064AD054D2
:10580C0001339BB29DBF0B8003F1FF33981800202E
:10581C00704700BF7C4F00208C4F002038B50546E8
:10582C00C0B2FFF7E7FF0446280AFFF7E3FF14B105
:10583C00002808BF0024204638BDF8B50546C0B284
:10584C00FFF7D8FF0446C5F30720FFF7D3FF074641
:10585C00C5F30740FFF7CEFF0646280EFFF7CAFF39
:10586C0024B12FB136B1002808BF00242046F8BD62
:10587C003C46FBE73446F9E770B50A4D2B885A18BD
:10588C00FE2A0C460CDC084E0A460146F018FFF7BF
:10589C001DFF2888204480B22880001B304470BD36
:1058AC000020FCE77C4F00208C4F002019449142D3
:1058BC0008B509DC0144002063B111F8012D013B4E
:1058CC0002EB0020DBB2F7E702201A46024901F096
:1058DC00B1FC002008BD00BFCEB703000423FFF7C6
:1058EC00E5BF08B50223FFF7E1FF80B208BD000059
:1058FC008A4208B5034606D8084A0949022001F035
:10590C0099FC084808BD5B5CFF2B08BF00230B44C7
:10591C0093420844F6DB044AEFE700BFE5B7030007
:10592C00F6B703005A24002004B803000078FF28BF
:10593C0008BF0020704708B502220021FFF7D1FFF5
:10594C004FF6FF73984208BF002008BD024B034A74
:10595C001A600020704700BF5C2400209A9003005E
:10596C00002814BF702000207047002070470020D2
:10597C0070477047014B1878704700BF044F0020E8
:10598C0008B5FCF77BFCFF280CBFFF20002008BDEE
:10599C0008B5FFF7F5FFFF280CBFA320002008BDBA
:1059AC00002303707047FBF799B8FBF7A4B8B0B5A8
:1059BC00CB1D03F4FC730A4600AFADEB030D694637
:1059CC0083180DF1FF34834204D1184630F0DDF812
:1059DC00BD46B0BD013B1D7804F8015FF3E7000044
:1059EC0073B50E4A0E480D4C0E4E1221FCF772F98F
:1059FC000025625D31460120013501F01BFC102DA4
:105A0C00F7D109482168006800906268A3680748CC
:105A1C000DF0FAFFC0B202B070BD00BFD84D00202F
:105A2C00F44D002040B80300E44D0020064E002049
:105A3C002DE9F047514D0E4681461F460FCD98B0CB
:105A4C000FAC0FC40FCD0FC42B68236001238DF84E
:105A5C003C708DF8583028F0B9FE18AB4FF48032FA
:105A6C0043F8402D099093E80300FFF7E1FB4FF654
:105A7C00104399451CBF73783278139014BF03EB15
:105A8C00022315230E9318204FF482730C932FF0DE
:105A9C001FFF0CABCDF83490804693E80700FFF75E
:105AAC0031FCB37888F80C3000243379C8F808003E
:105ABC00B9F1080F0FAF8DF828408DF829300DF192
:105ACC00280A07D0B9F5806F06D18DF82830737984
:105ADC008DF8293002240FE04FF61042914542D147
:105AEC00013616F8013F0AF804300134082CF8D1BD
:105AFC0021465046FFF75BFF214E00251AF8053072
:105B0C002A4631460120013501F094FB082DF5D1D0
:105B1C00214607AA504602F051FC22460646079B36
:105B2C001849174D012001F085FB3446079BA21B39
:105B3C0093421CDC13AD0FCD6C46C8F810600FC43B
:105B4C00C4F8008097E80F00FFF724FD044600F02E
:105B5C00DDFE20462FF0C4FE16B130462FF0C0FEFD
:105B6C0018B0BDE8F0878DF828300124C4E714F88C
:105B7C00013B2946012001F05DFBD7E714B8030077
:105B8C000CBA030019BA03002DE9F043314D064657
:105B9C001F46884691460FCD99B00FAC0FC40FCD60
:105BAC000FC42B68236001238DF83C708DF858309E
:105BBC0028F00CFE18AB4FF4803243F8402D0990BE
:105BCC0093E80300FFF734FB18AC1523CDE90D6304
:105BDC0013904FF48273182044F8303D2FF078FE68
:105BEC00074694E80700FFF78DFB00233B73B86072
:105BFC0008EB09030DF127020FAE434525D107AA87
:105C0C0049460AA802F0DAFB13AD8046079B1249FD
:105C1C004A46012001F00EFB0FCD6C46C7F81080F0
